:100000006F00000A1300000013000000130000003E
:10001000232E11FE232C51FE232A61FE232871FE7C
:100020002326A1FE2324B1FE2322C1FE2320D1FEDC
:10003000232EE1FC232CF1FC232A01FD232811FDB2
:100040002326C1FD2324D1FD2322E1FD2320F1FD40
:10005000130101FCEF0080158320C103832281037B
:1000600003234103832301030325C1028325810266
:1000700003264102832601020327C1018327810150
:100080000328410183280101032EC100832E810032
:10009000032F4100832F010013010104730020305E
:1000A0009701004093810176138101C0170500007C
:1000B00013054510970500409385C5F417060040C9
:1000C000130646F463DCC5008326050023A0D50093
:1000D0001305450093854500E3C8C5FE170500409C
:1000E000130545F2970500409385C5F16308B500F7
:1000F00023200500130545006FF05FFF1305001B6B
:100100001301C1FF9305001B630EB5008326050094
:10011000130545002320A100E78006000325010008
:100120006FF05FFE13014100EF0080006F000000E0
:10013000B70700831307800D23A2E700B7070082EB
:100140001307F00323A4E70023A0E700370700818B
:1001500083270700B7061000B7054000B3E7D700B4
:100160002320F7008326070037860100B7070082A7
:10017000B3E6B6002320D7009306066A03A707005C
:100180009386F6FF1347170023A0E700E39806FEC7
:100190009306066A03A707009386F6FF1347070135
:1001A00023A0E700E39806FE6FF01FFD67800000C4
:00000001FF
