:100000006F00000A1300000013000000130000003E
:10001000232E11FE232C51FE232A61FE232871FE7C
:100020002326A1FE2324B1FE2322C1FE2320D1FEDC
:10003000232EE1FC232CF1FC232A01FD232811FDB2
:100040002326C1FD2324D1FD2322E1FD2320F1FD40
:10005000130101FCEF0040368320C103832281039A
:1000600003234103832301030325C1028325810266
:1000700003264102832601020327C1018327810150
:100080000328410183280101032EC100832E810032
:10009000032F4100832F010013010104730020305E
:1000A0009701004093810176138101C0170500007C
:1000B00013050535970500409385C5F417060040E4
:1000C000130646F463DCC5008326050023A0D50093
:1000D0001305450093854500E3C8C5FE170500409C
:1000E000130545F2970500409385C5F16308B500F7
:1000F00023200500130545006FF05FFF1305C03F87
:100100001301C1FF9305C03F630EB50083260500B0
:10011000130545002320A100E78006000325010008
:100120006FF05FFE13014100EF0080006F000000E0
:10013000B70700821307F00323A0E70023A20700FC
:100140001307500123A4E700B78733309387B7E73D
:10015000B7CE0000B78F7E33370700C0B7887E6DFB
:1001600037886D7B37757B7EB785336D37366D018C
:10017000B77601012320F700130FC03B930700005F
:10018000138E0E35938898E71308E8E71305E5D733
:100190001383DFB69385B5E71306E637938636D328
:1001A0001307F000636AF700139727003307EF0087
:1001B000032707006700070093071000B70200C07D
:1001C0001307000323A0E20093871700E39CC7FFF7
:1001D000930710006FF0DFFC93870E35370700C0E0
:1001E000232017019387F7FFE39C07FE9307000185
:1001F0006FF01FFB93870E35370700C023200701E0
:100200009387F7FFE39C07FE9307F0006FF05FF919
:1002100093870E35370700C02320A7009387F7FF89
:10022000E39C07FE9307E0006FF09FF793870E357E
:10023000370700C0232067009387F7FFE39C07FE82
:100240009307D0006FF0DFF593870E35370700C0B6
:100250002320B7009387F7FFE39C07FE9307C000B6
:100260006FF01FF493870E35370700C02320C700B7
:100270009387F7FFE39C07FE9307B0006FF05FF2F0
:1002800093870E35370700C02320D7009387F7FFE9
:10029000E39C07FE9307A0006FF09FF03707010172
:1002A00093870E35B70200C01307D71623A0E200CC
:1002B0009387F7FFE39C07FE930790006FF05FEED4
:1002C0003707010193870E35B70200C013071710D7
:1002D00023A0E2009387F7FFE39C07FE93078000CB
:1002E0006FF01FEC3707017B93870E35B70200C014
:1002F0001307171023A0E2009387F7FFE39C07FE84
:10030000930770006FF0DFE937077B7E93870E3528
:10031000B70200C01307171023A0E2009387F7FF6E
:10032000E39C07FE930760006FF09FE793870E350D
:10033000B70200C013871FB023A0E2009387F7FF26
:10034000E39C07FE930750006FF09FE5378733303B
:1003500093870E35B70200C01307B7E723A0E2006A
:100360009387F7FFE39C07FE930740006FF05FE37E
:100370003737300093870E35B70200C01307E737D1
:1003800023A0E2009387F7FFE39C07FE930730006A
:100390006FF01FE13737000093870E35B70200C0BA
:1003A0001307370323A0E2009387F7FFE39C07FEC0
:1003B000930720006FF0DFDE67800000BC010000C3
:1003C00094030000700300004C0300002C030000A5
:1003D00008030000E4020000C00200009C020000CC
:1003E0008002000064020000480200002C020000AD
:0C03F00010020000F4010000D801000021
:00000001FF
